:020000040800F2
:1000000098140020DD010008E714000871130008AF
:10001000E5140008990200084D18000800000000CF
:100020000000000000000000000000004501000882
:100030009B0200080000000089010008F514000878
:10004000F7010008F7010008F7010008F7010008B0
:10005000F7010008E9140008F7010008F70100089B
:10006000F7010008F7010008F7010008F701000890
:10007000F7010008F7010008F7010008F701000880
:10008000F7010008F7010008F7010008F701000870
:10009000F7010008F7010008F7010008F701000860
:1000A000F701000889150008F7010008F7010008AA
:1000B000F7010008F7010008F7010008F701000840
:1000C000F7010008F7010008F7010008F701000830
:1000D000F70100083518000841180008F70100086A
:1000E000F7010008F7010008F7010008F701000810
:1000F000F7010008F7010008F7010008F701000800
:10010000F7010008F7010008F7010008F7010008EF
:10011000F7010008F7010008F7010008F7010008DF
:10012000F7010008F7010008F7010008F7010008CF
:10013000DFF80CD000F09EF800480047651A000870
:1001400098140020224B19680868B0E8F00F80F37B
:100150000988BFF36F8F4FF0000080F311884EF0D5
:100160000D0E70470000000006480068006880F32C
:10017000088862B661B6BFF34F8FBFF36F8F00DFA1
:1001800000BF00BF08ED00E0EFF30980BFF36F8F01
:100190000F4B1A6820E9F00F106008B54FF05000BF
:1001A00080F31188BFF34F8FBFF36F8F01F0EEFF25
:1001B0004FF0000080F31188BDE808401968086816
:1001C000B0E8F00F80F30988BFF36F8F704700BF6E
:1001D0001C000020EFF305807047000006488047B0
:1001E00006480047FEE7FEE7FEE7FEE7FEE7FEE71C
:1001F000FEE7FEE7FEE7FEE785150008310100088F
:1002000040EA01039B0703D009E008C9121F08C098
:10021000042AFAD203E011F8013B00F8013B521E18
:10022000F9D27047D2B201E000F8012B491EFBD28F
:1002300070470022F6E710B513460A4604461946F1
:10024000FFF7F0FF204610BD30B50B4601460020F9
:100250002022012409E021FA02F59D4205D303FA88
:1002600002F5491B04FA02F52844151EA2F1010209
:10027000F1DC30BD064C074D06E0E06840F00103BC
:1002800094E8070098471034AC42F6D3FFF754FFC8
:100290003825000858250008FEE7704772B6FEE7CB
:1002A00010B590F821100022022905D004218163A5
:1002B00080F82020012010BD01680B6823F00E0398
:1002C0000B6001680B6823F001030B6090F840306D
:1002D000C46B012101FA03F3636080F8211080F8F8
:1002E0002020104610BD00002DE9F05F90F821108D
:1002F0000024022903D004218163012485E00168E0
:100300000A6822F00E020A6001680A6822F00102FF
:100310000A603F4E3E4FB215DFF8F4C0DFF8F090B0
:10032000DFF8ECA0DFF8E8B0DFF8E4E00168783F40
:1003300013011502ACF1640CA9F15009AAF13C0AB1
:10034000ABF1280BAEF1140E4FF48018B14227D94F
:10035000B9420ED0614512D049451DD0514518D043
:10036000594518D0714501D1424615E0294EB14298
:1003700001D1012210E0274E1436B14201D11022E2
:100380000AE0244E2836B14206D0224A3C3291423D
:1003900001D11A4600E02A461E49091F0A602BE0D7
:1003A000B94213D0614517D0494522D051451DD0DF
:1003B00059451DD0714501D142461AE0B14202D1E2
:1003C0004FF0807215E0134EB14201D1012210E0CE
:1003D000104E1436B14201D110220AE00D4E2836DB
:1003E000B14206D00B4A3C32914201D11A4600E09C
:1003F0002A46074980394A60012180F821100021EE
:1004000080F82010416B01B188472046BDE8F09F7D
:10041000800002400804024070B5044600F018F95C
:100420000546601C02D004480078044400F010F92E
:10043000401BA042FAD370BD0C0000202DE9F84FFC
:10044000DFF8C891002409F1040A0AF1040B2346DD
:100450000F270BF1040ED1E00125A54006EA0502A5
:10046000AA4276D1DFF8A8C14E68A6EB0C08664513
:100470002BD00DDC032E34D005DC36B3012E19D081
:10048000022E2FD11BE0112E16D0122E2AD119E0E8
:10049000B8F5881F19D006DCB8F5803F15D0B8F53F
:1004A000801F1FD111E0B8F5001F0ED0B8F5041F52
:1004B00018D10AE0CB6815E0CB681B1D12E0CB68B1
:1004C00008330FE0CB680C330CE08B682BB1012BA9
:1004D0004FF0080303D0456104E0042302E0056106
:1004E00000E00023FF2A01D8064601E000F10406DF
:1004F0004FEA840501D9A5F12005D6F8008007FA56
:1005000005FC28EA0C0803FA05F548EA0508C6F8D0
:1005100000804D68ED0070D53E4DAE6946F0010695
:10052000AE61AD6924F0030605F0010500953A4D72
:1005300006EB050CDCF80850A607360F07FA06F89C
:1005400025EA0805DFF8D480404503D14FF00008C4
:1005500025E052E0DFF8C880404502D14FF00108A5
:100560001DE0DFF8C080404502D14FF0020816E0E0
:10057000DFF8B480404502D14FF003080FE0DFF808
:10058000AC80404502D14FF0040808E0DFF8A080BD
:10059000404502D14FF0050801E04FF0060808FA87
:1005A00006F848EA0508CCF808804D68D9F80060DC
:1005B000ED034D4601D5164300E096432E604D688D
:1005C000DAF80060AD03554601D5164300E09643C6
:1005D0002E604D68DBF80060ED025D4601D51643E4
:1005E00000E096432E604D68DEF80060AD0275466F
:1005F00001D5164300E096432E60641C0A68164637
:10060000E2407FF429AFBDE8F88F0000000401400C
:1006100000001110001002400000014000080140DD
:10062000000C01400010014000140140001801407E
:10063000001C0140C26821EA02030A4043EA024169
:10064000016170470AB1016170470904FBE70000CE
:1006500001488068704700000C0000200248816853
:1006600002781144816070470C000020074810B5E3
:10067000016841F010010160032000F0A1F80F2093
:1006800000F006F800F04AF8002010BD00200240FB
:1006900030B505461C4887B0816941F4006181612D
:1006A000806906A900F40060009001A800F030F90C
:1006B00000F05EF91549164AB0FBF1F11548491EE4
:1006C0000260416040F2E7320021C0E9032181600D
:1006D000816100F025FB040012D10E4800F04EFBB2
:1006E00004000DD1192000F03DF8102D07D2002292
:1006F0002946192000F044F80748056000E001246D
:1007000007B0204630BD00000010024040420F00FC
:10071000002C01405C03002010000020104808B5A8
:10072000816941F001018161816901F0010100915C
:10073000C16941F08051C161C069002200F0805060
:1007400000900F21901E00F01BF8052100220846A2
:1007500000F016F8BDE80840052000F003B80000DE
:1007600000100240002809DB00F01F020121914027
:100770004009800000F1E020C0F80011704700003F
:10078000F0B40E4B1B680C46C3F30223C3F10705FC
:10079000042D00D90425191D072901D2002300E0EA
:1007A000DB1E012606FA05F1491E214099409E40B4
:1007B000761E16403143F0BC01F05AB80CED00E053
:1007C000064900F0070208684FF6FF03184040EAA8
:1007D0000220034A10430860704700000CED00E05F
:1007E0000000FA052DE9F0470F46050061D0434EA1
:1007F000306800F00700B84209D2306820F00700E6
:1008000038433060306800F00700B84251D12868A2
:100810003B4C810712D5400703D5606840F4E06087
:1008200060602878000703D5606840F4605060601D
:100830006068A96820F0F000084360602878C0076D
:1008400028D06868012810D02168022810D08907B4
:1008500000292EDA616821F0030101436160FFF78E
:10086000F7FE804641F288390DE021688903EFE701
:100870008901EDE7FFF7ECFEA0EB0801494502D93D
:100880000320BDE8F0876068696800F00C00B0EBF9
:10089000810FEFD1306800F00700B8420BD9306803
:1008A00020F0070038433060306800F00700B8429D
:1008B00001D00120E5E72878400705D56068E968A0
:1008C00020F4E060084360602878000706D560687F
:1008D000296920F4605040EAC100606000F058F8D7
:1008E0006168084AC1F30311515CC84006490860B9
:1008F00006480068FFF7CCFE0020C2E70020024057
:1009000000100240042500081800002010000020FC
:100910000F2202600C4A536803F0030343605368DC
:1009200003F0F0038360536803F4E063C36052682C
:100930004FF4E06303EAD20202610448006800F069
:1009400007000860704700000010024000200240CD
:100950000448054900684968044AC1F30221515C12
:10096000C8407047180000200010024014250008FD
:100970000448054900684968044AC1F3C221515C32
:10098000C8407047180000200010024014250008DD
:1009900012A185B00FC98DE80F0014A0144A006899
:1009A00004905168134801F00C03042B10D0082B5D
:1009B0000ED1C1F38343C9031DF803000AD5516862
:1009C00004AAC1F34041515C0A4A5043B0FBF1F024
:1009D00005B0704708494843FAE7000002030405E0
:1009E000060708090A0B0C0D0E0F1010010200007B
:1009F0000010024000127A0000093D002DE9F84F76
:100A0000040070D02078C04DC00749D06868C0F39A
:100A10008100012807D06868C0F38100022809D14D
:100A20006868C00306D52868800339D56068002847
:100A3000E7D035E06068B0F5803F0BD010B1B0F57D
:100A4000A02F11D0286820F480302860286820F476
:100A5000802002E0286840F480302860606890B10F
:100A6000FFF7F6FD06460AE0286840F4802028607B
:100A7000F0E700BFFFF7ECFD801B642873D82868FF
:100A80008003F7D50CE0FFF7E3FD064605E000BF65
:100A9000FFF7DEFD801B6428F0D828688003F7D4B8
:100AA00020789A4E80074FF001094FF0000839D5A1
:100AB000686810F00C0F07D06868C0F38100022846
:100AC00009D16868C00306D42868800714D5206956
:100AD000012808D110E02069B0B1C6F80090FFF7F6
:100AE000B7FD074605E00AE1FFF7B2FDC01B02288B
:100AF000C4D828688007F7D52868616920F0F80015
:100B000040EAC10028600DE0C6F80080FFF7A0FDB4
:100B1000074604E0FFF79CFDC01B022823D8286885
:100B20008007F7D4207800072CD57948A169D9B17E
:100B3000C0F80090FFF78CFD074604E0FFF788FD42
:100B4000C01B02280FD8686A8007F7D571484FF498
:100B5000FA510068B0FBF1F0009000BF0098411E10
:100B60000091FAD20EE080E0C0F80080FFF770FD3F
:100B7000074604E0FFF76CFDC01B022875D8686AC1
:100B80008007F7D42078400760D5E8690027C000C7
:100B900008D4E86940F08050E861E869012700F076
:100BA000805000905C480168C90513D401688346F1
:100BB00041F480710160FFF74BFD824606E000BF03
:100BC000FFF746FDA0EB0A0064284ED8DBF80000D2
:100BD000C005F5D5E06801280AD008B1052813D072
:100BE000286A20F001002862286A20F0040002E050
:100BF000286A40F001002862E06841F2883B98B121
:100C0000FFF726FD82460BE0286A40F004002862C8
:100C1000EEE700BFFFF71CFDA0EB0A0159455AD8CB
:100C2000286A8007F6D50CE0FFF712FD824605E042
:100C3000FFF70EFDA0EB0A0159454CD8286A800742
:100C4000F6D41FB1E86920F08050E861E06988B30C
:100C50006968C1F38101022944D00228C6F8608086
:100C600004D0FFF7F5FC044638E034E0FFF7F0FC71
:100C7000074604E0FFF7ECFCC01B02282BD82868CD
:100C80008001F7D4206AB0F5803F05D16868A1687B
:100C900020F4003008436860D4E90801084369681B
:100CA00021F4741108436860C6F86090FFF7D0FC27
:100CB000044606E025E000BFFFF7CAFC001B02283F
:100CC00009D828688001F7D51BE000BFFFF7C0FCFA
:100CD000001B022802D90320BDE8F88F2868800194
:100CE000F4D40EE00128F7D06868226A00F480315D
:100CF000914204D1616A00F47010884201D0012051
:100D0000EAE70020E8E7000000100240000042424D
:100D10008004424218000020007000407047704775
:100D200010B5040003D094F83D0010B107E0012095
:100D300010BD002084F83C00204600F01EF8022080
:100D400084F83D00211D206800F024FC012084F877
:100D5000460084F83E0084F83F0084F8400084F8A0
:100D6000410084F8420084F8430084F8440084F889
:100D7000450084F83D00002010BD704790F83D10FC
:100D8000012901D001207047022180F83D1001683F
:100D9000CA6842F00102CA6000680E4988420ED05B
:100DA0000D4988420BD0B0F1804F08D00B498842E2
:100DB00005D00B49884202D00A49884204D1816893
:100DC00001F00701062903D0016841F0010101602B
:100DD00000207047002C0140003401400004004016
:100DE00000080040000C0040704770B504460068E1
:100DF00001694FF00005C943890715D4C168C9438B
:100E0000890711D4E91E01610120207720688069DB
:100E10008007204602D0FFF7E7FF04E000F098F8D3
:100E2000204600F096F8257720680169C9434907F4
:100E300017D4C168C943490713D46FF00401016195
:100E4000022020772068806910F4407F204602D07D
:100E5000FFF7CAFF04E000F07BF8204600F079F8C5
:100E6000257720680169C943090716D4C168C943B9
:100E7000090712D46FF0080101610420207720686F
:100E8000C0698007204602D0FFF7AEFF04E000F003
:100E90005FF8204600F05DF8257720680169C943B6
:100EA000C90617D4C168C943C90613D46FF010012D
:100EB0000161082020772068C06910F4407F204637
:100EC00002D0FFF791FF04E000F042F8204600F066
:100ED00040F8257720680169C943C90708D1C1686E
:100EE000C943C90704D1891E0161204600F032F8C8
:100EF00020680169C943090609D4C168C9430906C4
:100F000005D46FF0800101612046FFF707FF2068DC
:100F10000169C943490609D4C168C943490605D4D2
:100F20006FF040010161204600F01EF82068016961
:100F3000C94389060BD4C168C943890607D46FF039
:100F4000200101612046BDE87040FFF7E8BE70BD9A
:100F50007047704700680349884201D1FFF77EBBA4
:100F600070470000002C0140704770477047000038
:100F7000F8B5026804461068D168536910F00F0F85
:100F80004FF0000553D003F0010601F4907737438A
:100F90005FD0C20705D0CA0503D5226C42F001021A
:100FA0002264420705D5DA0703D0226C42F0020220
:100FB0002264820705D5DA0703D0226C42F00402CE
:100FC0002264020707D501F02002324303D0226CCD
:100FD00042F008022264226C002A34D0800604D534
:100FE000880602D5204600F03BFB20684069216C52
:100FF000C0F38010090700D430B3204600F018FB7E
:101000002068416949061BD5416921F040014161D1
:10101000A06BA8B158494163A06BFFF765F90028A0
:1010200011D0A06B416B01B0BDE8F04008478306CA
:101030000FD58B060DD52046BDE8F84000F010BB5B
:101040002046FFF793FFF8BD2046FFF78FFF25648A
:10105000F8BD266B2023012E52D1C60650D5CE06F0
:101060004ED5106850680090506940062AD5A16B93
:10107000086840680004000CEAD0A68D8642E7D9D3
:10108000E0858869202818D0D06820F48070D0606E
:101090002068416921F0010141612068416921F026
:1010A0004001416184F83E3025632068C16821F029
:1010B0001001C160A06BFFF7F3F8A08DE18D401A1D
:1010C00081B219E0A08DE18D401A81B2E08D002837
:1010D000BED00029BCD0D06820F49070D0602068C9
:1010E000426922F00102426184F83E3025632068A3
:1010F000C26822F01002C2602046FFF736FFF8BD3A
:1011000005062BD50D0629D594F83D002128F6D1EA
:10111000A068B0F5805F01D12069B0B1206A411CA0
:101120002162216800784860E08C401E0004000CB9
:10113000E084E4D12068C16821F08001C1602068AA
:10114000C16841F04001C160F8BD206A0088C0F369
:1011500008005060206A801C2062E5E74006F3D555
:101160004806F1D5D168204621F04001D16084F8CD
:101170003D3000F0FCF8F8BD2116000870B5040001
:1011800004D094F83D00002510B106E0012070BDA8
:1011900084F83C50204600F023F8242084F83D00D9
:1011A0002068C16821F40051C160204600F0B4FA03
:1011B0002068016921F4904101612068416921F0B2
:1011C0002A0141612068C16841F40051C160256471
:1011D000202084F83D0084F83E00002070BD00000F
:1011E00070B586B0002400940194029403942E4EAE
:1011F00003682E49022003222D4DB34226D18B696C
:1012000043F480438B618B6903F4804304938B69BF
:1012100043F004038B618969039201F00401049196
:101220000102CDE9001069462846FFF707F92815A5
:10123000CDE90004694628460294FFF7FFF8002232
:1012400005212520FFF79CFA252028E0194EB342FE
:1012500027D1CB6943F40033CB61CB6903F400336E
:1012600004938B6943F004038B618969039201F055
:10127000040104910421CDE9001069462846FFF7D6
:10128000DDF80820CDE90004694628460294FFF7FE
:10129000D5F8002205212620FFF772FA2620FFF755
:1012A00061FA06B070BD0000003801400010024035
:1012B0000008014000440040704700002DE9F84359
:1012C000044690F83D001F4616460D4620284CD196
:1012D000C5B1BEB194F83C00012846D0012084F885
:1012E0003C004FF00008C4F84080212084F83D0005
:1012F000FFF7AEF9A6848146E684A068B0F5805F6A
:1013000003D004E00120BDE8F883206928B12E460F
:101310005FF0000584F83C800EE00026FAE78021AB
:10132000204600F055FAA0B9AEB116F8010B2168BD
:101330004860E08C401EE084E08C4B464FF0000299
:1013400000970028EBD14FF04001204600F040FA12
:1013500030B10320D7E735F8020BC0F30800E6E709
:10136000202084F83D000020CDE70220CBE7704725
:10137000FEE7000010B58EB01C220B496846FEF750
:101380003FFF0021684600F08EFB084C06491C22F6
:1013900060601C3107A8FEF733FF002107A800F0AA
:1013A00082FB60600EB010BDCC2400080400002059
:1013B0002DE9F04186B000252A4800950195029557
:1013C0000395816941F004018161816901F00401A3
:1013D0000491816941F008018161816901F008018E
:1013E0000491816941F480718161816901F48071A6
:1013F0000491816941F02001816180691A4E00F0F9
:1014000020000490002201213046FFF71BF9174FFE
:101410000022C0213846FFF715F9DFF8548000227A
:1014200040214046FFF70EF901240094CDE9014523
:10143000694630460394FFF701F8C0208DE831007B
:10144000694638460394FEF7F9FF40208DE83100E5
:101450000320039069464046FEF7F0FF06B0BDE862
:10146000F081000000100240000C0140002001400B
:10147000001401400C4810B50A4901604FF4E131F5
:101480004160002181600C22C160C0E904128161C9
:10149000C161FFF773FE002803D0BDE81040FEF7DE
:1014A000FDBE10BD00380140D40200200C4810B52C
:1014B0000A4901604FF4E1314160002181600C2252
:1014C000C160C0E904128161C161FFF757FE0028C5
:1014D00003D0BDE81040FEF7E1BE10BD004400405F
:1014E00018030020FEE7FEE77047C82000F0CFFA9F
:1014F000FBE7000010B5502080F31188BFF34F8F39
:10150000BFF36F8F00F01CFF18B104494FF08050FB
:101510000860002080F3118810BD000004ED00E099
:1015200030B58FB028216846FEF783FE14210AA843
:10153000FEF77FFE0920012100904FF48030002447
:1015400004910691CDE901040225CDE907504FF43D
:10155000E01009906846FFF751FA08B172B6FEE74D
:101560000F20CDE90A054FF48060CDE90C4002213F
:101570000AA80E94FFF736F9002801D072B6FEE7EC
:101580000FB030BD704700000148FFF72EBC0000CF
:101590005C030020F0B502681C4B1D4D1D4E1E4F14
:1015A0001E4C4FF0804C984209D0A04207D06045B5
:1015B00005D0A84203D0B04201D0B84204D122F0F5
:1015C000700E4A6842EA0E02984209D0A04207D043
:1015D000604505D0A84203D0B04201D0B84203D143
:1015E00022F44075CA682A434D6922F080022A43DA
:1015F00002608A68C2620A688262984201D0A04290
:1016000001D10969016301214161F0BD002C014054
:101610000004004000080040000C0040003401407D
:1016200010B5406A0021C185C184FFF79FFC10BD41
:101630000168CA6822F49072CA6001684A6922F09F
:1016400001024A61016B012904D10168CA6822F0D4
:101650001002CA60202180F83E100021016370470B
:1016600008B590F83E10222901D0022008BD8268FA
:101670004FF480539A4201D1016921B1816A9A42A3
:101680001BD04AB10AE00268816A5268C2F30802BC
:101690000A80816A891C08E0026972B10268526896
:1016A00002F07F020A70816A491C8162C18D491E65
:1016B0000904090CC18503D019E002685268F1E7FA
:1016C0000168CA6822F02002CA600168CA6822F470
:1016D0008072CA6001684A6922F001024A612021D1
:1016E00080F83E10016B012903D0FFF7E5FD0020D3
:1016F00008BD002101630168CA6822F01002CA60B7
:1017000001680A68D20602D50A6849680091818D8D
:10171000FFF72BFCEBE7000070B504460068016999
:10172000E26821F44051114301612169A068084336
:10173000616908432168CA6841F20C639A43024315
:10174000CA6020684169A26921F440711143416176
:101750001E492068884202D1FFF70AF901E0FFF72D
:10176000F7F800EBC00101EB001260686421800013
:10177000B2FBF0F3B3FBF1F36FF018067343B2FB67
:10178000F0F5B2FBF0F605EB8305322303EB05150C
:10179000B5FBF1F5B6FBF1F605F0F00505EB061526
:1017A000B2FBF0F6B2FBF0F0B0FBF1F06FF0180214
:1017B000504306EB800003EB0010B0FBF1F0216812
:1017C00000F00F002844886070BD00000038014020
:1017D0002DE9F041984617460E460446069D1DE049
:1017E000681C1BD02DB1FEF733FFA0EB0800A84208
:1017F00014D92068C16821F4D071C16020684169A2
:1018000021F001014161202084F83D0084F83E0070
:10181000002084F83C000320BDE8F08120680068C7
:1018200036EA000004D00020B842D9D00020F3E707
:101830000120F9E70148FFF79BBB0000D40200201C
:101840000148FFF795BB000018030020FEE70000E9
:101850000FB4054B10B503A9044A029800F028F80C
:1018600010BC5DF814FB0000411A00087C00002049
:101870000907090E002804DB00F1E02080F80014BD
:10188000704700F00F0000F1E02080F8141D704751
:1018900002E008C8121F08C1002AFAD17047704739
:1018A000002001E001C1121F002AFBD17047000097
:1018B0002DE9FF4F89B09B460446002506E0252808
:1018C0000BD05A460B999047641C6D1C2078002859
:1018D000F5D10DB02846BDE8F08F0027B8460122AB
:1018E000474900E0074314F8013F203B02FA03F0A8
:1018F0000842F7D120782E2819D114F8010F47F0AB
:1019000004072A280ED06FF02F022078A0F13001B2
:1019100009290CD808EB880102EB410100EB010812
:10192000641CF2E70A98641C50F8048B0A90207833
:101930000028CED0642808D0692806D075281ED08B
:101940005A460B9990476D1C58E00A994FF00A09C6
:1019500001C90A91002802DA40422D2102E039052E
:1019600004D52B218DF82010012103E0F90704D0C4
:101970002021F7E78A4608AE0DE00021FAE70A9930
:101980004FF00A0901C90A91F7E74946FEF75CFCE6
:10199000303106F8011D0028F7D1ADEB060000F14B
:1019A0002009780701D44FF00108C84502DDA8EBF3
:1019B000090000E000208046002706E008A85A46FB
:1019C000C05D0B9990476D1C7F1C5745F6DB04E00A
:1019D00030205A460B9990476D1CB8F10001A8F1D0
:1019E0000108F5DC05E016F8010B5A460B99904703
:1019F0006D1CB9F10001A9F10109F4DC641C65E773
:101A000009280100094D0A4C4FF4FA6601212846C5
:101A1000FEF710FE217807A0FFF71AFF2178304665
:101A2000491C2170FEF7F8FCF0E70000000C0140B3
:101A300004000020736865656174203D2025640002
:101A400010B5044605484FF47A730146047001222C
:101A50000348FFF733FC204610BD000000000020C3
:101A6000D4020020FEF702FEFFF75AFDFFF7A0FCAC
:101A7000FFF700FDFFF71AFDFFF77CFC00F00EF802
:101A8000FEE701460020842900D0C81C704710B52D
:101A900000B9012000F016FB002010BD10B500F0C9
:101AA00037FB002010BD7FB50D4604464169B0F9F3
:101AB000080081B1A16971B1FFF7E3FFD4E9051214
:101AC0008DE80700D4E900102B46226900F00DFCD8
:101AD000039004B070BDFFF7D4FF03A9CDE9000166
:101AE000208A2B4682B2D4E9001000F0D1FB0128F5
:101AF00001D00020EDE70398EBE700002DE9F0416D
:101B0000184C0F46054666692068001D00F016FA5D
:101B100038B9206890F82C1001208840A1698143D1
:101B2000A161681C07D137B12168BDE8F0410E48BA
:101B3000091D00F047BA20683544B5424560216868
:101B400005D2A068BDE8F041091D00F023BA606825
:101B5000091D00F01FFA206B854200D22563BDE805
:101B6000F08100001C000020800400202DE9F041DD
:101B7000054600F033FA2E4C2069401C2061206895
:101B80002C4F10B1E06940B32DE025602069012899
:101B900029D1002606EB860007EB800000F0ECF967
:101BA000761C072EF6D323488C3000F0E5F9214847
:101BB000A03000F0E1F91F48B43000F0DDF91D4815
:101BC000C83000F0D9F91B48DC3000F0D5F91948CD
:101BD0008C3060601430A06005E02068E96AC06A5B
:101BE000884200D82560E06A401CE062E96A012072
:101BF000A26988401043A06101EB810007EB8000DF
:101C0000291D00F0DFF900F009FAE06900280CD086
:101C10002068E96AC06A884207D207494FF08050BD
:101C20000860BFF34F8FBFF36F8FBDE8F0810000F6
:101C30001C000020A403002004ED00E010B50446C1
:101C400090F8510058B101280CD002280FD0502034
:101C500080F31188BFF34F8FBFF36F8FFEE7206BC8
:101C600000F0F0F92046BDE8104000F0EBB910BDDF
:101C700010484FF44061420706D0C01D0D4920F0C6
:101C80000700411AC1F540610B4A00230144C2E933
:101C900000030839103A21F0070111604B600B6016
:101CA0000B1AC0E9001393604FF000405360D060FE
:101CB000704700009404002068000020144E154C6A
:101CC000A6F1C8074FF08058DFF84C9012E000BF33
:101CD00000F084F9F068C568281D00F02FF920692C
:101CE000401E2061E068401EE06000F097F9284641
:101CF000FFF7A4FFE0680028EAD138680128F9D985
:101D0000C9F80080BFF34F8FBFF36F8FF2E7000079
:101D10006C0400201C00002004ED00E02DE9F047D9
:101D20009A46DDE9098481466FF00303206B03EBDB
:101D300082021044089D20F00706700707D050204B
:101D400080F31188BFF34F8FBFF36F8FFEE7231827
:101D50000A5C83F834200A5C12B1401C1028F6D3C8
:101D6000002784F84370072D00D30625E562C4E9F7
:101D70001157201D00F00BF904F1180000F007F9CD
:101D80002461C5F107006462A061E76484F85070C3
:101D900052464946304600F0BFF82060B8F1000FC7
:101DA00001D0C8F80040BDE8F087000030B5114907
:101DB00000E011460A688242FBD34B685C188442FB
:101DC00003D1406818444860084643681C18944290
:101DD00009D1084C103C2468A24209D052681A4428
:101DE00042600A6812680260814200D0086030BD1B
:101DF0000460F9E76800002006484168096829B1D5
:101E00004168C968C9684968016370474FF0FF318C
:101E1000FAE700001C00002008484068401C4FF012
:101E2000500080F3118804D0BFF34F8FBFF36F8F42
:101E3000FEE7BFF34F8FBFF36F8FFEE77000002008
:101E40002DE9F0410546002700F098F9314E306841
:101E500008B9FFF70DFFF06805424BD1C5B308354F
:101E600068070ED005F00700C0F1080005446807B8
:101E700007D0502080F31188BFF34F8FBFF36F8FCF
:101E8000FEE72DB37068854234D8224810300146F1
:101E90000C6801E020460C466168A94202D2216824
:101EA0000029F7D131688C4224D00768216801608D
:101EB00060680837411B10290FD96019420708D004
:101EC000502080F31188BFF34F8FBFF36F8FFEE771
:101ED00010E041606560FFF769FF61687068401A53
:101EE0007060B268904200D2B060F0680143002098
:101EF000C4E9000100F088FA780707D0502080F389
:101F00001188BFF34F8FBFF36F8FFEE73846BDE8F0
:101F1000F08100005800002010B5031F4FF08074BE
:101F20001C601B1F21F001011960191F024B0B607F
:101F3000143940380A6010BD191E0008D0E901327A
:101F400001699A60D0E901235A604A68824201D14E
:101F500082684A60002202610868401E08600868C2
:101F600070470000034B036003F1540008608020B9
:101F7000106070478000002000F108014FF0FF3230
:101F8000C0E90112C16001610021016070470021B8
:101F90000161704730B50B685A1C02D000F108028D
:101FA00002E0026904E02246546825689D42FAD99D
:101FB00053684B6099608A60516008610168491CF0
:101FC000016030BD42684A6093688B6093685960D5
:101FD000916008610168491C01607047502080F3DE
:101FE0001188BFF34F8FBFF36F8F0A494868401CB9
:101FF000486001280CD10848006810F0FF0F07D096
:10200000502080F31188BFF34F8FBFF36F8FFEE72F
:10201000704700007000002004ED00E008494868A7
:1020200028B1401E486001D180F3118870475020CC
:1020300080F31188BFF34F8FBFF36F8FFEE700006F
:102040007000002070B5002827D0144DA0F10804BE
:102050006168E868014207D1502080F31188BFF31E
:102060004F8FBFF36F8FFEE722683AB1502080F3A5
:102070001188BFF34F8FBFF36F8FFEE7814361601D
:1020800000F07CF860686968084468602046FFF7E3
:102090008DFEBDE8704000F0B7B970BD580000205B
:1020A0004FF0E02000210161816105494FF47A720F
:1020B0000968B1FBF2F1491E4161072101617047D6
:1020C0001800002010B5020014D00F48806B38B102
:1020D000502080F31188BFF34F8FBFF36F8FFEE75F
:1020E00000F04CF800211046FFF708FD00F08CF9D5
:1020F000002807D105494FF080500860BFF34F8F8B
:10210000BFF36F8F10BD00001C00002004ED00E045
:1021100010B586B00024039405AA04A903A804946A
:10212000FFF720FFDDE903010094CDE90110002352
:102130000EA11048059A00F0D8F80F49002848630E
:1021400011D0502080F31188BFF34F8FBFF36F8FF2
:102150004FF0FF3008630120C8614C6106B0BDE854
:10216000104000F041B806B010BD000049444C4595
:1021700000000000BD1C00081C0000200248816B0C
:10218000491C8163704700001C0000201448816BCB
:1021900011B1012141627047002141628169B1FAA8
:1021A00081F1C1F11F0101EB81020E4951F822308A
:1021B0006BB101EB820101F108034A6852684A6081
:1021C0009A4201D152684A60D1680160704750203C
:1021D00080F31188BFF34F8FBFF36F8FFEE70000CE
:1021E0001C000020A40300201CB52649087801909B
:1021F000FF20087008788DF800009DF800009DF819
:10220000002000F0F000904207D0502080F31188A9
:10221000BFF34F8FBFF36F8FFEE79DF800001A4B9F
:1022200000F0500018700720986005E09DF800202D
:1022300052008DF80020401E9DF800201206F5D4B3
:102240009860032807D0502080F31188BFF34F8F88
:10225000BFF36F8FFEE74FF44070986001980870ED
:102260000A48016841F470010160016841F0704161
:102270000160FFF715FF00205860FDF775FF002093
:102280001CBD000000E400E07000002020ED00E034
:102290002DE9FF5F8346DDE90E87994616468A469B
:1022A0009000FFF7CDFD05001CD05420FFF7C8FDBE
:1022B000040014D00020256384F85100CDE90240C9
:1022C000CDE900874B46324651465846FFF726FD7A
:1022D0002046FFF74BFC012004B0BDE8F09F2846E4
:1022E000FFF7B0FE4FF0FF30F6E7F0B585B0DDE95F
:1022F0000B640A9DA6B1DCB1542700972663022621
:1023000084F85160002604AFCDE90246CDE90057BC
:10231000FFF704FD2046FFF729FC049805B0F0BD47
:10232000502080F31188BFF34F8FBFF36F8FFEE70C
:10233000502080F31188BFF34F8FBFF36F8FFEE7FC
:102340002DE9F0412E4C0027A06B40B1206A401CC3
:102350002062606A00B101273846BDE8F0816669F5
:10236000761C666113D16068006838B1502080F334
:102370001188BFF34F8FBFF36F8FFEE76068A168CE
:102380006160A060A06A401CA062FFF735FD206B71
:10239000DFF87080864209D36068006880B16068A9
:1023A000C068C568686886420DD220632068C06A2C
:1023B00000EB800158F821000128CAD90127C8E79D
:1023C0004FF0FF30F1E7281DFFF7B8FDA86A18B1FC
:1023D00005F11800FFF7B2FDE86A0121A26981400A
:1023E0001143A16100EB800108EB8100291DFFF77B
:1023F000E9FDE86A2168C96A8842CDD30127CBE7A5
:102400001C000020A40300202DE9F0472C4D0024DF
:102410002746A86B38B1FFF7E1FDA86B401EA86303
:10242000A86B40B146E0502080F31188BFF34F8F76
:10243000BFF36F8FFEE72969224E0120D1B3A6F1C9
:10244000B40980463068E8B1F068C46804F1180047
:10245000FFF774FD201DFFF771FDE06AAA6908FA15
:1024600000F11143A96100EB800109EB8100211DFE
:10247000FFF7A8FDE06A2968C96A8842E2D3C5F877
:102480002480DFE70CB1FFF7B7FC2C6A44B1464665
:10249000FFF756FF00B16E62641EF9D1002028627A
:1024A000686A38B10849012738070860BFF34F8FC1
:1024B000BFF36F8FFFF7B2FD3846BDE8F08700002D
:1024C0001C0000205804002004ED00E01C2500083A
:1024D000EB14000800000000000000008000000075
:1024E00000000000000000002C250008051A00086C
:1024F000000000000000000080000000000000005C
:1025000000000000000000000000000001020304C1
:1025100006070809000000000102030464656275F3
:10252000675F75736172745F746173006164645F87
:10253000636F756E740000005825000800000020CD
:102540008000000090180008D825000880000020B6
:1025500018140000A018000800000000000000008F
:10256000000000000100000010000000000000005A
:102570000024F40000000000000000000000000043
:10258000000000000000000000000000000000004B
:10259000000000000000000000000000000000003B
:1025A000000000000000000000000000000000002B
:1025B000000000000000000000000000000000001B
:1025C000000000000000000000000000AAAAAAAA63
:0825D000000000000000000003
:0400000508000131BD
:00000001FF
