:020000040800F2
:1000000000170020DD01000893150008E113000827
:10001000911500086D020008211900080000000079
:100020000000000000000000000000004501000882
:1000300099020008000000008901000899150008D5
:10004000F7010008F7010008F7010008F7010008B0
:10005000F701000895150008F7010008F7010008EE
:10006000F7010008F7010008F7010008F701000890
:10007000F7010008F7010008F7010008F701000880
:10008000F7010008F7010008F7010008F701000870
:10009000F7010008F7010008F7010008F701000860
:1000A000F70100082D160008F7010008F701000805
:1000B000F7010008F7010008F7010008F701000840
:1000C000F7010008F7010008F7010008F701000830
:1000D000F70100080919000815190008F7010008C0
:1000E000F7010008F7010008F7010008F701000810
:1000F000F7010008F7010008F7010008F701000800
:10010000F7010008F7010008F7010008F7010008EF
:10011000F7010008F7010008F7010008F7010008DF
:10012000F7010008F7010008F7010008F7010008CF
:10013000DFF80CD000F088F800480047C31A000828
:1001400000170020224B19680868B0E8F00F80F310
:100150000988BFF36F8F4FF0000080F311884EF0D5
:100160000D0E70470000000006480068006880F32C
:10017000088862B661B6BFF34F8FBFF36F8F00DFA1
:1001800000BF00BF08ED00E0EFF30980BFF36F8F01
:100190000F4B1A6820E9F00F106008B54FF05000BF
:1001A00080F31188BFF34F8FBFF36F8F02F06EF9AA
:1001B0004FF0000080F31188BDE808401968086816
:1001C000B0E8F00F80F30988BFF36F8F704700BF6E
:1001D0002C000020EFF305807047000006488047A0
:1001E00006480047FEE7FEE7FEE7FEE7FEE7FEE71C
:1001F000FEE7FEE7FEE7FEE72916000831010008EA
:1002000040EA01039B0703D009E008C9121F08C098
:10021000042AFAD203E011F8013B00F8013B521E18
:10022000F9D27047D2B201E000F8012B491EFBD28F
:1002300070470022F6E710B513460A4604461946F1
:10024000FFF7F0FF204610BD064C074D06E0E068C2
:1002500040F0010394E8070098471034AC42F6D30D
:10026000FFF76AFFA42C0008C42C0008FEE730B595
:1002700090F840500124AC40C56B6C60046863602A
:100280004368102B036803D099600068C26030BDDA
:100290009A600068C16030BD704772B6FEE710B565
:1002A00090F821100022022905D00421816380F8F2
:1002B0002020012010BD01680B6823F00E030B60A5
:1002C00001680B6823F001030B6090F84030C46BA9
:1002D000012101FA03F3636080F8211080F82020E7
:1002E000104610BD2DE9F05F90F82110002402297E
:1002F00003D004218163012485E001680A6822F0AB
:100300000E020A6001680A6822F001020A603F4E8C
:100310003E4FB215DFF8F4C0DFF8F090DFF8ECA044
:10032000DFF8E8B0DFF8E4E00168783F1301150278
:10033000ACF1640CA9F15009AAF13C0AABF1280B0D
:10034000AEF1140E4FF48018B14227D9B9420ED045
:10035000614512D049451DD0514518D0594518D096
:10036000714501D1424615E0294EB14201D1012229
:1003700010E0274E1436B14201D110220AE0244E7B
:100380002836B14206D0224A3C32914201D11A4667
:1003900000E02A461E49091F0A602BE0B94213D02B
:1003A000614517D0494522D051451DD059451DD032
:1003B000714501D142461AE0B14202D14FF080723C
:1003C00015E0134EB14201D1012210E0104E143657
:1003D000B14201D110220AE00D4E2836B14206D0BA
:1003E0000B4A3C32914201D11A4600E02A460749A5
:1003F00080394A60012180F82110002180F8201006
:10040000416B01B188472046BDE8F09F8000024063
:100410000804024070B5044690F820000025012829
:100420000CD0012084F8200094F821600020012ED7
:1004300006D084F820000225284670BD022070BD39
:10044000022684F82160A0632068066826F0010671
:1004500006602046FFF70BFFE06A0028206801686D
:1004600002D041F00E0106E021F004010160206895
:10047000016841F00A0101602068016841F0010152
:100480000160D9E72DE9F84FDFF8C891002409F1A0
:10049000040A0AF1040B23460F270BF1040ED1E0E6
:1004A0000125A54006EA0502AA4276D1DFF8A8C1D7
:1004B0004E68A6EB0C0866452BD00DDC032E34D01D
:1004C00005DC36B3012E19D0022E2FD11BE0112EE0
:1004D00016D0122E2AD119E0B8F5881F19D006DCE3
:1004E000B8F5803F15D0B8F5801F1FD111E0B8F5E1
:1004F000001F0ED0B8F5041F18D10AE0CB6815E034
:10050000CB681B1D12E0CB6808330FE0CB680C33BF
:100510000CE08B682BB1012B4FF0080303D0456131
:1005200004E0042302E0056100E00023FF2A01D873
:10053000064601E000F104064FEA840501D9A5F161
:100540002005D6F8008007FA05FC28EA0C0803FA13
:1005500005F548EA0508C6F800804D68ED0070D53D
:100560003E4DAE6946F00106AE61AD6924F003066A
:1005700005F0010500953A4D06EB050CDCF8085036
:10058000A607360F07FA06F825EA0805DFF8D48033
:10059000404503D14FF0000825E052E0DFF8C88065
:1005A000404502D14FF001081DE0DFF8C080404512
:1005B00002D14FF0020816E0DFF8B480404502D1C6
:1005C0004FF003080FE0DFF8AC80404502D14FF058
:1005D000040808E0DFF8A080404502D14FF005088C
:1005E00001E04FF0060808FA06F848EA0508CCF8DA
:1005F00008804D68D9F80060ED034D4601D51643DB
:1006000000E096432E604D68DAF80060AD03554671
:1006100001D5164300E096432E604D68DBF800607C
:10062000ED025D4601D5164300E096432E604D680D
:10063000DEF80060AD02754601D5164300E0964332
:100640002E60641C0A681646E2407FF429AFBDE8BC
:10065000F88F00000004014000001110001002405B
:100660000000014000080140000C01400010014062
:100670000014014000180140001C01400AB1016152
:1006800070470904FBE700000148806870470000DC
:100690001C00002070B5040011D021684CF6CC403D
:1006A0000860216845F255500860D4E900014160B6
:1006B0002168A0688860FFF7E7FF05460DE001208C
:1006C00070BD00BFFFF7E0FF401B272805D9206859
:1006D000C068800701D0032070BD2068C068800713
:1006E000F0D121684AF6AA200860002070BD006899
:1006F0004AF6AA2101600020704700000248816884
:1007000002781144816070471C000020074810B532
:10071000016841F010010160032000F0A1F80F20F2
:1007200000F006F800F04AF8002010BD002002405A
:1007300030B505461C4887B0816941F4006181618C
:10074000806906A900F40060009001A800F030F96B
:1007500000F05EF91549164AB0FBF1F11548491E43
:100760000260416040F2E7320021C0E9032181606C
:10077000816100F025FB040012D10E4800F04EFB11
:1007800004000DD1192000F03DF8102D07D20022F1
:100790002946192000F044F80748056000E00124CC
:1007A00007B0204630BD00000010024040420F005C
:1007B000002C0140D000002020000020104808B587
:1007C000816941F001018161816901F001010091BC
:1007D000C16941F08051C161C069002200F08050C0
:1007E00000900F21901E00F01BF805210022084602
:1007F00000F016F8BDE80840052000F003B800003E
:1008000000100240002809DB00F01F020121914086
:100810004009800000F1E020C0F80011704700009E
:10082000F0B40E4B1B680C46C3F30223C3F107055B
:10083000042D00D90425191D072901D2002300E049
:10084000DB1E012606FA05F1491E214099409E4013
:10085000761E16403143F0BC01F063B80CED00E0A9
:10086000064900F0070208684FF6FF03184040EA07
:100870000220034A10430860704700000CED00E0BE
:100880000000FA052DE9F0470F46050061D0434E00
:10089000306800F00700B84209D2306820F0070045
:1008A00038433060306800F00700B84251D1286802
:1008B0003B4C810712D5400703D5606840F4E060E7
:1008C00060602878000703D5606840F4605060607D
:1008D0006068A96820F0F000084360602878C007CD
:1008E00028D06868012810D02168022810D0890714
:1008F00000292EDA616821F0030101436160FFF7EE
:10090000C3FE804641F288390DE021688903EFE794
:100910008901EDE7FFF7B8FEA0EB0801494502D9D0
:100920000320BDE8F0876068696800F00C00B0EB58
:10093000810FEFD1306800F00700B8420BD9306862
:1009400020F0070038433060306800F00700B842FC
:1009500001D00120E5E72878400705D56068E968FF
:1009600020F4E060084360602878000706D56068DE
:10097000296920F4605040EAC100606000F058F836
:100980006168084AC1F30311515CC8400649086018
:1009900006480068FFF7CCFE0020C2E700200240B6
:1009A000001002405C2C00082800002020000020DD
:1009B0000F2202600C4A536803F00303436053683C
:1009C00003F0F0038360536803F4E063C36052688C
:1009D0004FF4E06303EAD20202610448006800F0C9
:1009E000070008607047000000100240002002402D
:1009F0000448054900684968044AC1F30221515C72
:100A0000C840704728000020001002406C2C0008ED
:100A10000448054900684968044AC1F3C221515C91
:100A2000C840704728000020001002406C2C0008CD
:100A300012A185B00FC98DE80F0014A0144A0068F8
:100A400004905168134801F00C03042B10D0082BBC
:100A50000ED1C1F38343C9031DF803000AD55168C1
:100A600004AAC1F34041515C0A4A5043B0FBF1F083
:100A700005B0704708494843FAE70000020304053F
:100A8000060708090A0B0C0D0E0F101001020000DA
:100A90000010024000127A0000093D002DE9F84FD5
:100AA000040070D02078C04DC00749D06868C0F3FA
:100AB0008100012807D06868C0F38100022809D1AD
:100AC0006868C00306D52868800339D560680028A7
:100AD000E7D035E06068B0F5803F0BD010B1B0F5DD
:100AE000A02F11D0286820F480302860286820F4D6
:100AF000802002E0286840F480302860606890B16F
:100B0000FFF7C2FD06460AE0286840F4802028600E
:100B1000F0E700BFFFF7B8FD801B642873D8286892
:100B20008003F7D50CE0FFF7AFFD064605E000BFF8
:100B3000FFF7AAFD801B6428F0D828688003F7D44B
:100B400020789A4E80074FF001094FF0000839D500
:100B5000686810F00C0F07D06868C0F381000228A5
:100B600009D16868C00306D42868800714D52069B5
:100B7000012808D110E02069B0B1C6F80090FFF755
:100B800083FD074605E00AE1FFF77EFDC01B022852
:100B9000C4D828688007F7D52868616920F0F80074
:100BA00040EAC10028600DE0C6F80080FFF76CFD48
:100BB000074604E0FFF768FDC01B022823D8286819
:100BC0008007F7D4207800072CD57948A169D9B1DE
:100BD000C0F80090FFF758FD074604E0FFF754FD0A
:100BE000C01B02280FD8686A8007F7D571484FF4F8
:100BF000FA510068B0FBF1F0009000BF0098411E70
:100C00000091FAD20EE080E0C0F80080FFF73CFDD2
:100C1000074604E0FFF738FDC01B022875D8686A54
:100C20008007F7D42078400760D5E8690027C00026
:100C300008D4E86940F08050E861E869012700F0D5
:100C4000805000905C480168C90513D40168834650
:100C500041F480710160FFF717FD824606E000BF96
:100C6000FFF712FDA0EB0A0064284ED8DBF8000065
:100C7000C005F5D5E06801280AD008B1052813D0D1
:100C8000286A20F001002862286A20F0040002E0AF
:100C9000286A40F001002862E06841F2883B98B180
:100CA000FFF7F2FC82460BE0286A40F0040028625D
:100CB000EEE700BFFFF7E8FCA0EB0A0159455AD860
:100CC000286A8007F6D50CE0FFF7DEFC824605E0D7
:100CD000FFF7DAFCA0EB0A0159454CD8286A8007D7
:100CE000F6D41FB1E86920F08050E861E06988B36C
:100CF0006968C1F38101022944D00228C6F86080E6
:100D000004D0FFF7C1FC044638E034E0FFF7BCFC38
:100D1000074604E0FFF7B8FCC01B02282BD8286860
:100D20008001F7D4206AB0F5803F05D16868A168DA
:100D300020F4003008436860D4E90801084369687A
:100D400021F4741108436860C6F86090FFF79CFCBA
:100D5000044606E025E000BFFFF796FC001B0228D2
:100D600009D828688001F7D51BE000BFFFF78CFC8D
:100D7000001B022802D90320BDE8F88F28688001F3
:100D8000F4D40EE00128F7D06868226A00F48031BC
:100D9000914204D1616A00F47010884201D00120B0
:100DA000EAE70020E8E700000010024000004242AD
:100DB00080044242280000200070004070477047C5
:100DC00010B5040003D094F83D0010B107E00120F5
:100DD00010BD002084F83C00204600F01EF80220E0
:100DE00084F83D00211D206800F026FC012084F8D5
:100DF000460084F83E0084F83F0084F8400084F800
:100E0000410084F8420084F8430084F8440084F8E8
:100E1000450084F83D00002010BD704790F83D105B
:100E2000012901D001207047022180F83D1001689E
:100E3000CA6842F00102CA6000680E4988420ED0BA
:100E40000D4988420BD0B0F1804F08D00B49884241
:100E500005D00B49884202D00A49884204D18168F2
:100E600001F00701062903D0016841F0010101608A
:100E700000207047002C0140003401400004004075
:100E800000080040000C0040704770B50446006840
:100E900001694FF00005C943890715D4C168C943EA
:100EA000890711D4E91E016101202077206880693B
:100EB0008007204602D0FFF7E7FF04E000F098F833
:100EC000204600F096F8257720680169C943490754
:100ED00017D4C168C943490713D46FF004010161F5
:100EE000022020772068806910F4407F204602D0DD
:100EF000FFF7CAFF04E000F07BF8204600F079F825
:100F0000257720680169C943090716D4C168C94318
:100F1000090712D46FF008010161042020772068CE
:100F2000C0698007204602D0FFF7AEFF04E000F062
:100F30005FF8204600F05DF8257720680169C94315
:100F4000C90617D4C168C943C90613D46FF010018C
:100F50000161082020772068C06910F4407F204696
:100F600002D0FFF791FF04E000F042F8204600F0C5
:100F700040F8257720680169C943C90708D1C168CD
:100F8000C943C90704D1891E0161204600F032F827
:100F900020680169C943090609D4C168C943090623
:100FA00005D46FF0800101612046FFF707FF20683C
:100FB0000169C943490609D4C168C943490605D432
:100FC0006FF040010161204600F01EF820680169C1
:100FD000C94389060BD4C168C943890607D46FF099
:100FE000200101612046BDE87040FFF7E8BE70BDFA
:100FF0007047704700680349884201D1FFF77EBB04
:1010000070470000002C0140704770477047000097
:10101000F8B5026804461068D168536910F00F0FE4
:101020004FF0000553D003F0010601F490773743E9
:101030005FD0C20705D0CA0503D5226C42F0010279
:101040002264420705D5DA0703D0226C42F002027F
:101050002264820705D5DA0703D0226C42F004022D
:101060002264020707D501F02002324303D0226C2C
:1010700042F008022264226C002A34D0800604D593
:10108000880602D5204600F087FB20684069216C65
:10109000C0F38010090700D430B3204600F05BFB9A
:1010A0002068416949061BD5416921F04001416131
:1010B000A06BA8B158494163A06BFFF713F9002852
:1010C00011D0A06B416B01B0BDE8F040084783062A
:1010D0000FD58B060DD52046BDE8F84000F05CBB6F
:1010E0002046FFF793FFF8BD2046FFF78FFF2564EA
:1010F000F8BD266B2023012E52D1C60650D5CE0650
:101100004ED5106850680090506940062AD5A16BF2
:10111000086840680004000CEAD0A68D8642E7D932
:10112000E0858869202818D0D06820F48070D060CD
:101130002068416921F0010141612068416921F085
:101140004001416184F83E3025632068C16821F088
:101150001001C160A06BFFF7A2F8A08DE18D401ACD
:1011600081B219E0A08DE18D401A81B2E08D002896
:10117000BED00029BCD0D06820F49070D060206828
:10118000426922F00102426184F83E302563206802
:10119000C26822F01002C2602046FFF736FFF8BD99
:1011A00005062BD50D0629D594F83D002128F6D14A
:1011B000A068B0F5805F01D12069B0B1206A411C00
:1011C0002162216800784860E08C401E0004000C19
:1011D000E084E4D12068C16821F08001C16020680A
:1011E000C16841F04001C160F8BD206A0088C0F3C9
:1011F00008005060206A801C2062E5E74006F3D5B5
:101200004806F1D5D168204621F04001D16084F82C
:101210003D3000F0E3F8F8BDC516000870B50400D5
:1012200004D094F83D00002510B106E0012070BD07
:1012300084F83C50204600F023F8242084F83D0038
:101240002068C16821F40051C160204600F000FB15
:101250002068016921F4904101612068416921F011
:101260002A0141612068C16841F40051C1602564D0
:10127000202084F83D0084F83E00002070BD00006E
:1012800070B586B0002400940194029403942E4E0D
:1012900003682E49022003222D4DB34226D18B69CB
:1012A00043F480438B618B6903F4804304938B691F
:1012B00043F004038B618969039201F004010491F6
:1012C0000102CDE9001069462846FFF7DBF8281532
:1012D000CDE90004694628460294FFF7D3F80022BE
:1012E00005212520FFF79CFA252028E0194EB3425E
:1012F00027D1CB6943F40033CB61CB6903F40033CE
:1013000004938B6943F004038B618969039201F0B4
:10131000040104910421CDE9001069462846FFF735
:10132000B1F80820CDE90004694628460294FFF789
:10133000A9F8002205212620FFF772FA2620FFF7E0
:1013400061FA06B070BD0000003801400010024094
:1013500000080140004400407047000070B504469A
:1013600090F83D00202830D169B362B394F83C0076
:1013700001282AD0012084F83C002162A284E28462
:1013800000252564212084F83D00636B1048986295
:10139000636B1048D862636B0F481863606B134629
:1013A00045632668606B321DFFF734F821686FF0E3
:1013B0004000086084F83C502068416941F0800199
:1013C0004161002070BD012070BD022070BD000091
:1013D0001F1700084D170008D51600087047704702
:1013E000FEE7000000B595B000F00AFB1C220F4993
:1013F0006846FEF705FF0021684600F085FB0B49B3
:101400001C221C3107A8FEF7FBFE002107A800F0F4
:101410007BFB06491C2238310EA8FEF7F1FE0021A5
:101420000EA800F071FB15B000BD0000082C0008EC
:101430002DE9F04186B000252A48009501950295D6
:101440000395816941F004018161816901F0040122
:101450000491816941F008018161816901F008010D
:101460000491816941F480718161816901F4807125
:101470000491816941F02001816180691A4E00F078
:1014800020000490002201213046FFF7F7F8174FA3
:101490000022C0213846FFF7F1F8DFF8548000221F
:1014A00040214046FFF7EAF801240094CDE90145C8
:1014B000694630460394FEF7E5FFC0208DE8310011
:1014C000694638460394FEF7DDFF40208DE8310081
:1014D0000320039069464046FEF7D4FF06B0BDE8FE
:1014E000F081000000100240000C0140002001408B
:1014F00000140140094810B507490160002141600E
:1015000040F6FF718160FFF7C5F8002803D0BDE801
:101510001040FEF7C2BE10BD00300040F4030020B2
:101520000C4810B50A4901604FF4E13141600021D7
:1015300081600C22C160C0E904128161C161FFF7C2
:101540006DFE002803D0BDE81040FEF7A6BE10BD1A
:10155000003801406C0300200C4810B50A490160B6
:101560004FF4E1314160002181600C22C160C0E98B
:1015700004128161C161FFF751FE002803D0BDE86C
:101580001040FEF78ABE10BD00440040B0030020AA
:10159000FEE7FEE77047000010B5502080F3118889
:1015A000BFF34F8FBFF36F8F01F0E2F918B1044919
:1015B0004FF080500860002080F3118810BD0000BB
:1015C00004ED00E030B58FB028216846FEF731FE0B
:1015D00014210AA8FEF72DFE0920012100904FF4E6
:1015E0008030002404910691CDE901040225CDE963
:1015F00007504FF4E01009906846FFF74FFA08B122
:1016000072B6FEE70F20CDE90A054FF48060CDE900
:101610000C4002210AA80E94FFF734F9002801D0EB
:1016200072B6FEE70FB030BD704700000148FFF70B
:101630002CBC0000D0000020F0B502681C4B1D4DF2
:101640001D4E1E4F1E4C4FF0804C984209D0A042B8
:1016500007D0604505D0A84203D0B04201D0B842BF
:1016600004D122F0700E4A6842EA0E02984209D074
:10167000A04207D0604505D0A84203D0B04201D0B7
:10168000B84203D122F44075CA682A434D6922F05A
:1016900080022A4302608A68C2620A6882629842B3
:1016A00001D0A04201D10969016301214161F0BD6E
:1016B000002C01400004004000080040000C0040E5
:1016C0000034014010B5406A0021C185C184FFF794
:1016D0009DFC10BD70B5446A2068406994F83D10C7
:1016E000C0F3C0100025212904D118B1E58420469B
:1016F00000F049F82068406994F83E10C0F380106B
:10170000222904D118B1E585204600F024F8206C88
:1017100040F0100020642046FFF778FC70BD10B543
:101720000146406A0968096889060CD40021C18411
:1017300001684A6922F080024A610068C16841F08C
:101740004001C16010BDFFF749FE10BD10B5406AF1
:10175000FFF745FE10BD0168CA6822F49072CA60A6
:1017600001684A6922F001024A61016B012904D132
:101770000168CA6822F01002CA60202180F83E1079
:101780000021016370470168CA6822F0C002CA6084
:10179000202180F83D10704708B590F83E102229AE
:1017A00001D0022008BD82684FF480539A4201D1D3
:1017B000016921B1816A9A421BD04AB10AE00268EC
:1017C000816A5268C2F308020A80816A891C08E0B3
:1017D000026972B10268526802F07F020A70816A7F
:1017E000491C8162C18D491E0904090CC18503D0C1
:1017F00019E002685268F1E70168CA6822F0200225
:10180000CA600168CA6822F48072CA6001684A69C5
:1018100022F001024A61202180F83E10016B01296B
:1018200003D0FFF799FD002008BD00210163016886
:10183000CA6822F01002CA6001680A68D20602D59E
:101840000A6849680091818DFFF7DFFBEBE7000034
:1018500070B5044600680169E26821F44051114303
:1018600001612169A0680843616908432168CA6869
:1018700041F20C639A430243CA6020684169A2693D
:1018800021F44071114341611E492068884202D110
:10189000FFF7BEF801E0FFF7ABF800EBC00101EB8A
:1018A0000012606864218000B2FBF0F3B3FBF1F337
:1018B0006FF018067343B2FBF0F5B2FBF0F605EBE0
:1018C0008305322303EB0515B5FBF1F5B6FBF1F605
:1018D00005F0F00505EB0615B2FBF0F6B2FBF0F0F3
:1018E000B0FBF1F06FF01802504306EB800003EB01
:1018F0000010B0FBF1F0216800F00F002844886070
:1019000070BD0000003801400148FFF781BB0000B6
:101910006C0300200148FFF77BBB0000B0030020F0
:10192000FEE70907090E002804DB00F1E02080F83B
:101930000014704700F00F0000F1E02080F8141D43
:10194000704702E008C8121F08C1002AFAD1704788
:101950007047002001E001C1121F002AFBD170472F
:10196000002800D0C0797047042801D2012801D096
:10197000002070470048704714000020074C0025E5
:10198000322000F0B5F82068401C20600228F7D112
:1019900003482560FEF7ABFEF2E7000000000020E0
:1019A000F403002010B5042801D8012801D000203C
:1019B00010BD0E220549064800F00CF804480E221E
:1019C0000249083000F006F8012010BD0004002094
:1019D0000C00002010B5002340B13AB131B1002411
:1019E000447102710160C471847105E0002010BD72
:1019F0000168CC545B1CDBB201799942F8D810BD68
:101A000010B50120FFF7CEFF012000F0E7FD124CDA
:101A10006060012000F0E2FDA06010480021016438
:101A2000222280F83E2080F83C100168CA6842F407
:101A30008072CA6001684A6942F001024A61006826
:101A4000C16841F02001C1601722BDE8104004A127
:101A5000012000F055BD0000000000208C00002097
:101A60005553415254322045535038323636204572
:101A70004E41424C450A000010B50C4603001ED0F2
:101A800000F043FB002819D058791979884201D316
:101A9000002058715979186844545879401C58717D
:101AA000502080F31188BFF34F8FBFF36F8FD87929
:101AB000401CD871002080F31188012010BD002047
:101AC00010BDFEF723FEFFF77DFDFFF7B1FCFFF72A
:101AD00027FDFFF741FDFFF70DFDFFF783FC00F049
:101AE0000EF8FEE701460020842900D0C81C70478C
:101AF00010B500B9012000F03FFC002010BD10B56A
:101B000000F086FC002010BD7FB50D4604464169FB
:101B1000B0F9080081B1A16971B1FFF7E3FFD4E921
:101B200005128DE80700D4E900102B46226900F069
:101B3000E0FE039004B070BDFFF7D4FF03A9CDE928
:101B40000001208A2B4682B2D4E9001000F0A4FEE6
:101B5000012801D00020EDE70398EBE72DE9F041E3
:101B6000184C0F46054666692068001D00F040FBD2
:101B700038B9206890F82C1001208840A169814371
:101B8000A161681C07D137B12168BDE8F0410E485A
:101B9000091D00F071BB20683544B54245602168DD
:101BA00005D2A068BDE8F041091D00F04DBB60689A
:101BB000091D00F049FB206B854200D22563BDE87A
:101BC000F08100002C000020EC0600202DE9F041FF
:101BD000054600F05DFB2E4C2069401C206120680A
:101BE0002C4F10B1E06940B32DE025602069012839
:101BF00029D1002606EB860007EB800000F016FBDB
:101C0000761C072EF6D323488C3000F00FFB2148BA
:101C1000A03000F00BFB1F48B43000F007FB1D485C
:101C2000C83000F003FB1B48DC3000F0FFFA194815
:101C30008C3060601430A06005E02068E96AC06AFA
:101C4000884200D82560E06A401CE062E96A012011
:101C5000A26988401043A06101EB810007EB80007E
:101C6000291D00F009FB00F033FBE06900280CD0CF
:101C70002068E96AC06A884207D207494FF080505D
:101C80000860BFF34F8FBFF36F8FBDE8F081000096
:101C90002C0000201006002004ED00E02DE9F041AA
:101CA000856B174604460026026C82B1C7B1E06816
:101CB000FEF7A6FAE168206C091AE16022689142F9
:101CC00002D26168081AE060022F16D017E020687F
:101CD000A8B9606800F0B0FE0646002060600EE023
:101CE000A068FEF78DFA216CA0680844A0606168C6
:101CF000884204D32068A06001E005B16D1E6D1C10
:101D0000A5633046BDE8F08110B5044690F8510057
:101D100058B101280CD002280FD0502080F3118830
:101D2000BFF34F8FBFF36F8FFEE7206B00F0E4FA35
:101D30002046BDE8104000F0DFBA10BD10484FF457
:101D40004061420706D0C01D0D4920F00700411A2E
:101D5000C1F540610B4A00230144C2E90003083980
:101D6000103A21F0070111604B600B600B1AC0E9BB
:101D7000001393604FF000405360D0607047000044
:101D80000007002078000020144E154CA6F1C8076B
:101D90004FF08058DFF84C9012E000BF00F078FA66
:101DA000F068C568281D00F023FA2069401E2061F4
:101DB000E068401EE06000F08BFA2846FFF7A4FFC1
:101DC000E0680028EAD138680128F9D9C9F800800C
:101DD000BFF34F8FBFF36F8FF2E70000D8060020EC
:101DE0002C00002004ED00E0002807D00021416015
:101DF00001600B460A46C16000F064BC70470346B0
:101E0000009829B10260C0E90F31012100F016BC31
:101E10000060F8E72DE9F0479A46DDE9098481463C
:101E20006FF00303206B03EB82021044089D20F047
:101E30000706700707D0502080F31188BFF34F8F3B
:101E4000BFF36F8FFEE723180A5C83F834200A5C27
:101E500012B1401C1028F6D3002784F84370072DD8
:101E600000D30625E562C4E91157201D00F0E9F909
:101E700004F1180000F0E5F92461C5F1070064627F
:101E8000A061E76484F8507052464946304600F03D
:101E9000F5F82060B8F1000F01D0C8F80040BDE8A7
:101EA000F087000030B5114900E011460A6882420F
:101EB000FBD34B685C18844203D1406818444860E7
:101EC000084643681C18944209D1084C103C246809
:101ED000A24209D052681A4442600A68126802603D
:101EE000814200D0086030BD0460F9E7780000202E
:101EF00006484168096829B14168C968C9684968E4
:101F0000016370474FF0FF31FAE700002C0000201A
:101F100008484068401C4FF0500080F3118804D0FE
:101F2000BFF34F8FBFF36F8FFEE7BFF34F8FBFF34A
:101F30006F8FFEE7800000202DE9F041044600F09D
:101F4000A7F994F9455004F1240609E0606A48B104
:101F5000304600F0BDFD08B100F03CFA6D1E6DB2D8
:101F6000002DF3DC4FF0FF3684F8456000F0B0F947
:101F700000F08EF994F9445004F1100709E020694B
:101F800048B1384600F0A4FD08B100F023FA6D1EF8
:101F90006DB2002DF3DC84F84460BDE8F04100F040
:101FA00097B900002DE9F0410546002700F066FAD8
:101FB000314E306808B9FFF7C1FEF06805424BD1D9
:101FC000C5B3083568070ED005F00700C0F108005A
:101FD0000544680707D0502080F31188BFF34F8F66
:101FE000BFF36F8FFEE72DB37068854234D8224867
:101FF000103001460C6801E020460C466168A94299
:1020000002D221680029F7D131688C4224D00768B8
:102010002168016060680837411B10290FD96019D9
:10202000420708D0502080F31188BFF34F8FBFF3D1
:102030006F8FFEE710E041606560FFF733FF616876
:102040007068401A7060B268904200D2B060F06868
:1020500001430020C4E9000100F074FD780707D0B7
:10206000502080F31188BFF34F8FBFF36F8FFEE7CF
:102070003846BDE8F08100006800002010B5031F5D
:102080004FF080741C601B1F21F001011960191FA3
:10209000024B0B60143940380A6010BD111F000854
:1020A000042801D2012801D0002070470148FFF721
:1020B00057BC00000C000020042801D8012801D0E2
:1020C00000207047014800F003B800000C00002019
:1020D000002819D081790279914201D300218171C0
:1020E00082790168895C8279521C8271502282F364
:1020F0001188BFF34F8FBFF36F8FC279521EC27129
:10210000002080F3118808467047002804D0C27967
:1021100001798A4201D300207047C079081AC0B201
:102120007047000000260820FFF7E2FC1348016C0E
:10213000016419B10664222180F83E1080F83C60E9
:102140000168CA6842F48072CA6001684A6942F054
:1021500001024A610068C16841F02001C1600120AC
:10216000FFF79EFF10F0FF05DDD0002403E0012003
:10217000FFF7A2FF641CAC42D5D2F8E78C00002028
:10218000A6B000F0EFFBDFF864800746E9460A20BE
:10219000FFF7AEFC4FEA080494F83D00212804D173
:1021A00000F0E0FBC01B0328F6D90120FFF7DCFBA1
:1021B0000600ECD0012000F097F90404240CE6D0CE
:1021C000A02C02D3A024002501E0002505E0304624
:1021D000FFF77EFF09F805006D1CA542F7D32246E4
:1021E00069460248FFF7BAF8D1E700008C000020EA
:1021F000D0E9013201699A60D0E901235A604A6846
:10220000824201D182684A60002202610868401E51
:102210000860086870470000034B036003F1540036
:1022200008608020106070471801002000F108014C
:102230004FF0FF32C0E90112C1600161002101606D
:10224000704700210161704730B50B685A1C02D0FD
:1022500000F1080202E0026904E0224654682568A1
:102260009D42FAD953684B6099608A605160086159
:102270000168491C016030BD42684A6093688B6008
:1022800093685960916008610168491C016070475A
:10229000502080F31188BFF34F8FBFF36F8F0A492F
:1022A0004868401C486001280CD10848006810F0BC
:1022B000FF0F07D0502080F31188BFF34F8FBFF37B
:1022C0006F8FFEE7704700008000002004ED00E003
:1022D0000849486828B1401E486001D180F3118840
:1022E0007047502080F31188BFF34F8FBFF36F8F7B
:1022F000FEE700008000002070B5002827D0144DB4
:10230000A0F108046168E868014207D1502080F319
:102310001188BFF34F8FBFF36F8FFEE722683AB18A
:10232000502080F31188BFF34F8FBFF36F8FFEE70C
:102330008143616000F0A2F86068696808446860E1
:102340002046FFF7AFFDBDE8704000F0FBBB70BD5D
:10235000680000204FF0E020002101618161054903
:102360004FF47A720968B1FBF2F1491E416107210D
:10237000016170472800002010B5020014D00F48FA
:10238000806B38B1502080F31188BFF34F8FBFF3BB
:102390006F8FFEE700F072F800211046FFF7DEFBBA
:1023A00000F0D0FB002807D105494FF080500860AD
:1023B000BFF34F8FBFF36F8F10BD00002C000020C4
:1023C00004ED00E002498A6A026049694160704791
:1023D0002C00002001490120486270472C00002099
:1023E00010B50C4650B1094909681831FFF72CFFA8
:1023F0002046BDE810400121FFF7B0BB502080F31C
:102400001188BFF34F8FBFF36F8FFEE72C000020C2
:1024100010B586B00024039405AA04A903A8049467
:10242000FFF7FAFEDDE903010094CDE90110002376
:102430000EA11048059A00F05CFA0F490028486385
:1024400011D0502080F31188BFF34F8FBFF36F8FEF
:102450004FF0FF3008630120C8614C6106B0BDE851
:10246000104000F067B806B010BD000049444C456C
:1024700000000000891D00082C0000200248816B2C
:10248000491C8163704700002C0000201448816BB8
:1024900011B1012141627047002141628169B1FAA5
:1024A00081F1C1F11F0101EB81020E4951F8223087
:1024B0006BB101EB820101F108034A6852684A607E
:1024C0009A4201D152684A60D16801607047502039
:1024D00080F31188BFF34F8FBFF36F8FFEE70000CB
:1024E0002C00002010060020042801D2012801D071
:1024F000002070470148FFF733BA000014000020A5
:1025000070B516460D46042803D215B10EB1012848
:1025100001D0002070BD144629780548FFF7ACFAB9
:10252000641E6D1C14F0FF04F6D1304670BD00002F
:10253000140000201CB5264908780190FF2008707F
:1025400008788DF800009DF800009DF8002000F04C
:10255000F000904207D0502080F31188BFF34F8FD6
:10256000BFF36F8FFEE79DF800001A4B00F050009C
:1025700018700720986005E09DF8002052008DF843
:102580000020401E9DF800201206F5D49860032814
:1025900007D0502080F31188BFF34F8FBFF36F8FA8
:1025A000FEE74FF440709860019808700A4801688F
:1025B00041F470010160016841F070410160FFF772
:1025C000C9FE00205860FDF7CFFD00201CBD0000B3
:1025D00000E400E08000002020ED00E010B502469D
:1025E0000021012000F005F80446FFF7FDFB20461E
:1025F00010BDF8B517460E46050014D0DEB105FB38
:1026000006F04830FFF7CEFC04000AD0002084F822
:10261000460004F148023B46314628460094FFF745
:10262000EEFB2046F8BD502080F31188BFF34F8F9A
:10263000BFF36F8FFEE70020E3E7000070B50D46A3
:10264000040025D0FFF724FED4E90F20216802FB07
:10265000001161600021A1632168A1600A46D4E9EC
:102660000F01401E00FB0121E16021464FF0FF30C9
:1026700001F8440F487004F110008DB1FFF7D6FD4A
:1026800004F12400FFF7D2FDFFF722FE012070BD08
:10269000502080F31188BFF34F8FBFF36F8FFEE799
:1026A00021690029F0D000F013FA0028ECD0044989
:1026B0004FF080500860BFF34F8FBFF36F8FE3E799
:1026C00004ED00E02DE9FF4782B01D468A464FF039
:1026D0000008040003D0BAF1000F08D011E0502028
:1026E00080F31188BFF34F8FBFF36F8FFEE7206C2D
:1026F00038B1502080F31188BFF34F8FBFF36F8F35
:10270000FEE7022D0AD1E06B012807D0502080F3AC
:102710001188BFF34F8FBFF36F8FFEE700F014F9FE
:102720003F4F4FF000094FF0805648B9049838B138
:10273000502080F31188BFF34F8FBFF36F8FFEE7F8
:10274000FFF7A6FDA06BE16B884207D3022D05D0F1
:102750000498D0B1B8F1000F1AD01EE02A465146B5
:102760002046FFF79BFA616A19B104F1240000F0DA
:10277000AFF920B13E60BFF34F8FBFF36F8FFFF70C
:10278000A7FD012006B0BDE8F087FFF7A1FD22E01C
:102790006846FFF717FE4FF00108FFF799FDFFF7B6
:1027A0006DFEFFF775FD94F94400401C01D184F8DB
:1027B000449094F94500401C01D184F84590FFF7FE
:1027C00087FD04A9684600F02DF830B12046FFF7D8
:1027D000B3FB00F0B7F90020D4E7FFF759FDA06B79
:1027E000E16B884213D1FFF773FD04F110000499E7
:1027F000FFF7F6FD2046FFF79FFB00F0A3F9002846
:102800009ED13E60BFF34F8FBFF36F8F98E7FFF706
:102810005FFD2046FFF790FB00F094F990E7000081
:1028200004ED00E02DE9F0410C46050011D0C4B1E3
:10283000FFF72EFD174B5A696E682068911B471CE5
:1028400017D02F689B6A9F4219D0964217D801244F
:1028500010E0502080F31188BFF34F8FBFF36F8FCC
:10286000FEE7502080F31188BFF34F8FBFF36F8FC7
:10287000FEE70024FFF72CFD2046BDE8F0818842EA
:1028800005D9401A20602846FFF79CFDF1E700209B
:102890002060DCE72C0000202DE9FF5F8346DDE9A6
:1028A0000E87994616468A469000FFF77BFB050087
:1028B0001CD05420FFF776FB040014D000202563C1
:1028C00084F85100CDE90240CDE900874B463246FD
:1028D00051465846FFF79EFA2046FFF777F9012048
:1028E00004B0BDE8F09F2846FFF706FD4FF0FF302B
:1028F000F6E7F0B585B0DDE90B640A9DA6B1DCB161
:10290000542700972663022684F85160002604AFFE
:10291000CDE90246CDE90057FFF77CFA2046FFF7E4
:1029200055F9049805B0F0BD502080F31188BFF32D
:102930004F8FBFF36F8FFEE7502080F31188BFF3F6
:102940004F8FBFF36F8FFEE70548C16919B1806BE8
:1029500018B1002070470120704702207047000026
:102960002C00002001484069704700002C00002026
:102970002DE9F0412E4C0027A06B40B1206A401C8D
:102980002062606A00B101273846BDE8F0816669BF
:10299000761C666113D16068006838B1502080F3FE
:1029A0001188BFF34F8FBFF36F8FFEE76068A16898
:1029B0006160A060A06A401CA062FFF799FA206BDA
:1029C000DFF87080864209D36068006880B1606873
:1029D000C068C568686886420DD220632068C06AF6
:1029E00000EB800158F821000128CAD90127C8E767
:1029F0004FF0FF30F1E7281DFFF7FAFBA86A18B186
:102A000005F11800FFF7F4FBE86A0121A269814093
:102A10001143A16100EB800108EB8100291DFFF744
:102A20002BFCE86A2168C96A8842CDD30127CBE72D
:102A30002C0000201006002070B504004FF00001AB
:102A400040D0214D2868844207D0502080F311885F
:102A5000BFF34F8FBFF36F8FFEE7A06C38B1401EFE
:102A6000A064636CE26A9A422CD040B12AE0502004
:102A700080F31188BFF34F8FBFF36F8FFEE7201DE8
:102A8000FFF7B6FB114A012150B9E06A00EB800361
:102A900052F8233023B9AB6901FA00F08343AB61EC
:102AA000606CE062C0F10700A061E06AAB69814040
:102AB0001943A96100EB800002EB8000211DFFF7A4
:102AC000DBFB0121084670BD2C0000201006002011
:102AD0002DE9F041C068C468ACB104F118000746A4
:102AE000FFF786FB154DA86B0126A0B139461448A7
:102AF000FFF7C2FBE06A2968C96A88421CD9012035
:102B00006E62BDE8F081502080F31188BFF34F8FD3
:102B1000BFF36F8FFEE7201DFFF76AFBE16AAA692A
:102B200006FA01F01043A86101EB81000449B439B1
:102B300001EB8000211DDBE70020E2E72C000020F4
:102B4000C40600202DE9F0472C4D00242746A86B31
:102B500038B1FFF79DFBA86B401EA863A86B40B17E
:102B600046E0502080F31188BFF34F8FBFF36F8F83
:102B7000FEE72969224E0120D1B3A6F1B4098046AF
:102B80003068E8B1F068C46804F11800FFF730FB62
:102B9000201DFFF72DFBE06AAA6908FA00F1114336
:102BA000A96100EB800109EB8100211DFFF764FBA7
:102BB000E06A2968C96A8842E2D3C5F82480DFE761
:102BC0000CB1FFF795F92C6A44B14646FFF7D0FEE9
:102BD00000B16E62641EF9D100202862686A38B1C3
:102BE0000849012738070860BFF34F8FBFF36F8F85
:102BF000FFF76EFB3846BDE8F08700002C00002090
:102C0000C406002004ED00E0742C00087D190008C3
:102C1000FDFF000000000000800000000000000038
:102C200000000000942C0008812100080000000032
:102C30000000000000020000000000000000000092
:102C4000842C00082521000800000000000000007E
:102C50000002000000000000000000000000000072
:102C6000000000000102030406070809000000003C
:102C7000010203045461736B35304D53546872651F
:102C80006164000055415254325F52545F54617385
:102C90006B00000055415254325F54585F546173C9
:102CA0006B000000C42C0008000000208C00000015
:102CB00042190008502D00088C00002074160000F6
:102CC0005219000800000000000000000000000091
:102CD00000000000000000000000000000000000F4
:102CE0000100000010000000000000000024F400BB
:102CF00000000000000000000000000000000000D4
:102D000000000000000000000000000000000000C3
:102D100000000000000000000000000000000000B3
:102D200000000000000000000000000000000000A3
:102D30000000000000000000000000000000000093
:102D40000000000000000000AAAAAAAA00000000DB
:0400000508000131BD
:00000001FF
